{
  "contractName": "SRTSignature",
  "abi": [
    {
      "inputs": [
        {
          "internalType": "string",
          "name": "",
          "type": "string"
        }
      ],
      "name": "docMap",
      "outputs": [
        {
          "internalType": "string",
          "name": "docId",
          "type": "string"
        },
        {
          "internalType": "string",
          "name": "docSig",
          "type": "string"
        },
        {
          "internalType": "uint256",
          "name": "updated_time",
          "type": "uint256"
        }
      ],
      "stateMutability": "view",
      "type": "function",
      "constant": true
    },
    {
      "inputs": [
        {
          "internalType": "string",
          "name": "docId",
          "type": "string"
        },
        {
          "internalType": "string",
          "name": "docSig",
          "type": "string"
        }
      ],
      "name": "pushDocument",
      "outputs": [],
      "stateMutability": "nonpayable",
      "type": "function"
    },
    {
      "inputs": [
        {
          "internalType": "string",
          "name": "docId",
          "type": "string"
        },
        {
          "internalType": "string",
          "name": "docSig",
          "type": "string"
        }
      ],
      "name": "verifyDocument",
      "outputs": [
        {
          "internalType": "bool",
          "name": "",
          "type": "bool"
        }
      ],
      "stateMutability": "view",
      "type": "function",
      "constant": true
    }
  ],
  "bytecode": "0x608060405234801561001057600080fd5b50610885806100206000396000f3fe608060405234801561001057600080fd5b50600436106100415760003560e01c8063a4ca650b14610046578063c4b9067d14610076578063f3bc423014610092575b600080fd5b610060600480360381019061005b91906105bf565b6100c4565b60405161006d9190610652565b60405180910390f35b610090600480360381019061008b91906105bf565b6101dc565b005b6100ac60048036038101906100a7919061066d565b610272565b6040516100bb93929190610757565b60405180910390f35b6000806000846040516100d791906107d8565b908152602001604051809103902060010180546100f39061081e565b80601f016020809104026020016040519081016040528092919081815260200182805461011f9061081e565b801561016c5780601f106101415761010080835404028352916020019161016c565b820191906000526020600020905b81548152906001019060200180831161014f57829003601f168201915b505050505090508260405160200161018491906107d8565b60405160208183030381529060405280519060200120816040516020016101ab91906107d8565b60405160208183030381529060405280519060200120036101d05760019150506101d6565b60009150505b92915050565b816000836040516101ed91906107d8565b908152602001604051809103902060000190805190602001906102119291906103c2565b508060008360405161022391906107d8565b908152602001604051809103902060010190805190602001906102479291906103c2565b504260008360405161025991906107d8565b9081526020016040518091039020600201819055505050565b6000818051602081018201805184825260208301602085012081835280955050505050506000915090508060000180546102ab9061081e565b80601f01602080910402602001604051908101604052809291908181526020018280546102d79061081e565b80156103245780601f106102f957610100808354040283529160200191610324565b820191906000526020600020905b81548152906001019060200180831161030757829003601f168201915b5050505050908060010180546103399061081e565b80601f01602080910402602001604051908101604052809291908181526020018280546103659061081e565b80156103b25780601f10610387576101008083540402835291602001916103b2565b820191906000526020600020905b81548152906001019060200180831161039557829003601f168201915b5050505050908060020154905083565b8280546103ce9061081e565b90600052602060002090601f0160209004810192826103f05760008555610437565b82601f1061040957805160ff1916838001178555610437565b82800160010185558215610437579182015b8281111561043657825182559160200191906001019061041b565b5b5090506104449190610448565b5090565b5b80821115610461576000816000905550600101610449565b5090565b6000604051905090565b600080fd5b600080fd5b600080fd5b600080fd5b6000601f19601f8301169050919050565b7f4e487b7100000000000000000000000000000000000000000000000000000000600052604160045260246000fd5b6104cc82610483565b810181811067ffffffffffffffff821117156104eb576104ea610494565b5b80604052505050565b60006104fe610465565b905061050a82826104c3565b919050565b600067ffffffffffffffff82111561052a57610529610494565b5b61053382610483565b9050602081019050919050565b82818337600083830152505050565b600061056261055d8461050f565b6104f4565b90508281526020810184848401111561057e5761057d61047e565b5b610589848285610540565b509392505050565b600082601f8301126105a6576105a5610479565b5b81356105b684826020860161054f565b91505092915050565b600080604083850312156105d6576105d561046f565b5b600083013567ffffffffffffffff8111156105f4576105f3610474565b5b61060085828601610591565b925050602083013567ffffffffffffffff81111561062157610620610474565b5b61062d85828601610591565b9150509250929050565b60008115159050919050565b61064c81610637565b82525050565b60006020820190506106676000830184610643565b92915050565b6000602082840312156106835761068261046f565b5b600082013567ffffffffffffffff8111156106a1576106a0610474565b5b6106ad84828501610591565b91505092915050565b600081519050919050565b600082825260208201905092915050565b60005b838110156106f05780820151818401526020810190506106d5565b838111156106ff576000848401525b50505050565b6000610710826106b6565b61071a81856106c1565b935061072a8185602086016106d2565b61073381610483565b840191505092915050565b6000819050919050565b6107518161073e565b82525050565b600060608201905081810360008301526107718186610705565b905081810360208301526107858185610705565b90506107946040830184610748565b949350505050565b600081905092915050565b60006107b2826106b6565b6107bc818561079c565b93506107cc8185602086016106d2565b80840191505092915050565b60006107e482846107a7565b915081905092915050565b7f4e487b7100000000000000000000000000000000000000000000000000000000600052602260045260246000fd5b6000600282049050600182168061083657607f821691505b602082108103610849576108486107ef565b5b5091905056fea264697066735822122085dd93f9dbe4299f3de68c942acb94b9e57b4644325d9ce816ef526541f94eb764736f6c634300080e0033",
  "immutableReferences": {},
  "source": "// SPDX-License-Identifier: MIT\npragma solidity ^0.8.0;\n\ncontract SRTSignature {\n\n    struct Document {\n        string  docId;\n        string  docSig;\n        uint256 updated_time;\n    }\n\n    mapping(string => Document) public docMap;\n\n    function pushDocument(string memory docId, string memory docSig) public {\n        docMap[docId].docId  = docId;\n        docMap[docId].docSig = docSig;\n        docMap[docId].updated_time = block.timestamp;\n    }\n\n    function verifyDocument(string memory docId, string memory docSig) public view returns(bool){\n        string memory sig = docMap[docId].docSig;\n        if (keccak256(abi.encodePacked((sig))) == keccak256(abi.encodePacked((docSig))))\n            return true;\n        else\n            return false;\n\n    }\n}",
  "sourcePath": "/Users/bunyasan/learning/login/project/public/app/Blockchain/contracts/SRTSignature.sol",
  "compiler": {
    "name": "solc",
    "version": "0.8.14+commit.80d49f37.Emscripten.clang"
  },
  "schemaVersion": "3.4.7",
  "updatedAt": "2022-05-29T19:46:31.315Z",
  "networkType": "ethereum",
  "devdoc": {
    "kind": "dev",
    "methods": {},
    "version": 1
  },
  "userdoc": {
    "kind": "user",
    "methods": {},
    "version": 1
  }
}